:10000000B0C0FECFFDCFFCCFFBCFFACFF9CFF8CFFA
:10001000F7CFF6CFF5CFF4CFF3CFF2CFF1CFF0CFCC
:100020007DC3EECFB1C3ECCFE6C3EACFE9CFE8CFD3
:10003000E7CFE6CF1027E80364000A0001000010B4
:1000400000011000010000000040000000400AD73D
:10005000233C00000040000000400AD7233CE80396
:1000600000000040000000400AD7233C50415049A6
:100070002073656E736F72200D0A00454550524F14
:100080004D20697320676F6F6421204F666673652A
:100090007420782C793A25642C25640D0A200045BB
:1000A0004550524F4D2069732042414421204F66F4
:1000B0006673657420782C793A25642C25640D0AC2
:1000C0002000533E253034582D253034582D25300E
:1000D00033582D253033583C0D0A2020004F6666DA
:1000E00073657420646F6E652120782C793A2564DD
:1000F0002C25640D0A200043616E6E6F74206F66BC
:100100006673657420782C793A25642C25640D0A71
:10011000200001002D4E414E00494E4600000400D3
:1001200004024600040008024A0004000C024E00CB
:1001300004001C02520004002002560004002402A5
:100140005A0002003C025E0004004002600004000D
:1001500044026400040048026800010086021201A3
:100160000000F894EE27EFBBF1E0F5BFE5BF8DE0AE
:10017000A2E0BB27ED938A95E9F780E094E0A0E048
:10018000B1E0ED930197E9F7EEE1F1E0859195910A
:10019000009761F0A591B59105901590BF01F00110
:1001A00005900D920197E1F7FB01F0CFE0E0EEBB87
:1001B000EFEFEDBFE4E0EEBFC0E0D2E09FC312DAA4
:1001C000E0910402F091050260910602709107022D
:1001D000A0910802B091090280910A0290910B024D
:1001E000BED8A0910802B091090280910A029091B4
:1001F0000B0253D9E0931802F093190260931A028C
:1002000070931B02A0911402B09115028091160206
:1002100090911702DDD99CD8A0911802B0911902D3
:1002200080911A0290911B02EAD8A0911402B09119
:100230001502809116029091170291D8E093100256
:10024000F09311026093120270931302A0911802AE
:10025000B091190280911A0290911B02E0E0F0E047
:1002600060E87FE375D8A0910802B09109028091FF
:100270000A0290910B02C3D87F936F93FF93EF9381
:10028000A0911002B091110280911202909113027C
:10029000E0911402F091150260911602709117021C
:1002A00057D8DF01CB01F2D5A0910C02B0910D021D
:1002B00080910E0290910F02A2D8AF91BF918F91C1
:1002C0009F914DD8E0930802F093090260930A02CF
:1002D00070930B02E0911002F091110260911202F2
:1002E00070911302E0931402F093150260931602CA
:1002F00070931702E0911002F091110260911202C6
:1003000070911302BBD7C0C56DD9E0911C02F0916A
:100310001D0260911E0270911F02A0912002B091F7
:100320002102809122029091230219D8A0912002EB
:10033000B09121028091220290912302AED8E093E5
:100340003002F09331026093320270933302A09135
:100350002C02B0912D0280912E0290912F0238D95B
:10036000F7D7A0913002B091310280913202909182
:10037000330245D8A0912C02B0912D0280912E021B
:1003800090912F02ECD7E0932802F093290260931A
:100390002A0270932B02A0913002B0913102809119
:1003A000320290913302E0E0F0E060E87FE3D0D7E2
:1003B000A0912002B091210280912202909123020B
:1003C0001ED87F936F93FF93EF93A0912802B09173
:1003D000290280912A0290912B02E0912C02F09147
:1003E0002D0260912E0270912F02B2D7DF01CB0156
:1003F0004DD5A0912402B0912502809126029091C2
:100400002702FDD7AF91BF918F919F91A8D7E0931D
:100410002002F09321026093220270932302E09164
:100420002802F091290260912A0270912B02E09338
:100430002C02F0932D0260932E0270932F02E09114
:100440002802F091290260912A0270912B0216D79E
:100450001BC5AA9309D9ED81F0E0EF70F0708F0110
:10046000A5E0A09FF001A19FF00D7ED88F01ED8146
:10047000F0E0E07FF0706FD8DF01EC81F0E0EF702A
:10048000F070E295E07FEA2BFB2BAAE0B0E085D884
:100490009F01F801E20FF31FE0933802F093390255
:1004A000E0914002F091410260914202709143025A
:1004B000A0914402B091450280914602909147027A
:1004C0004ED7A0914402B09145028091460290918E
:1004D0004702E3D7E0935402F0935502609356022B
:1004E00070935702E0915002F091510260915202D4
:1004F00070915302A0913802B09139028827992750
:1005000078D87AD825D7A0915402B091550280911D
:1005100056029091570273D7A0915002B0915102A8
:1005200080915202909153021AD7E0934C02F093BB
:100530004D0260934E0270934F02A0915402B0910D
:1005400055028091560290915702E0E0F0E060E899
:100550007FE3FED6A0914402B0914502809146020D
:10056000909147024CD77F936F93FF93EF93A091A5
:100570004C02B0914D0280914E0290914F02E09159
:100580005002F09151026091520270915302E0D6F4
:10059000DF01CB017BD4A0914802B0914902809148
:1005A0004A0290914B022BD7AF91BF918F919F91AF
:1005B000D6D6E0934402F0934502609346027093CE
:1005C0004702E0914C02F0914D0260914E02709111
:1005D0004F02E0935002F0935102609352027093E5
:1005E0005302E0914C02F0914D0260914E027091E5
:1005F0004F0244D640D826960895AA93A0916D0242
:10060000A830E1F3F894E0916D02E03021F4E0913C
:10061000C000E072C1F4E0916B02EF5FE0936B0207
:10062000E150F0E0ED59FD4FA881A083A0916B024D
:10063000A83019F4E0E0E0936B02E0916D02EF5F07
:10064000E0936D0203C0E881E093C6007894C2C5D0
:10065000ECE2E4B9E0E0E5B9E7B9E8B9ECE0EAB921
:10066000E0E0EBB9E4BDE3E0E5BDE6E0E6BDE0E0F7
:10067000E7BDE8BDE0938000E0938100E093850052
:10068000E0938400E0938700E0938600E093890084
:10069000E0938800E0938B00E0938A00E093B6003B
:1006A000E093B000E093B100E093B200E093B300B8
:1006B000E093B400E1E0E0936E00E0E0E0936F00CF
:1006C000E0937000E0936900EDBBE0936800E2E026
:1006D000E093C000E8EDE093C100E6E0E093C200E3
:1006E000E0E0E093C500E0E1E093C400E0E8E0BFB3
:1006F000E0E0E0937F00E0937E00E0E4E0937C00A4
:10070000E4E8E0937A00E0E0E0937B00E3E5ECBD11
:10071000E0E0EDBDE093BC0078940895AA93BA930D
:10072000EA93FA93EFB7EA93E6E0E6BDA0913A02C6
:10073000B0913B02129738F0AAE3B2E0ED91FD913F
:100740003197FE93EE93A0913C02B0913D02129737
:1007500038F0ACE3B2E0ED91FD913197FE93EE936A
:10076000A0910002B0910102129738F0A0E0B2E02F
:10077000ED91FD913197FE93EE93E991EFBFF991E1
:10078000E991B991A9911895AA93EA93FA93EFB7D1
:10079000EA936CD71091C0000091C600E12FEC7174
:1007A00011F5EAE0F0E0E0933A02F0933B02E091C9
:1007B0006002EF5FE0936002E150F0E0E85AFD4F25
:1007C0000083A0916002A83019F4E0E0E093600299
:1007D000A0916202AF5FA0936202A83021F4E0E032
:1007E000E0936202F09A09911991E991EFBFF991B2
:1007F000E991A9911895AA93EA93FA93EFB7EA932E
:10080000E0916D02E030B1F0E150E0936D02E091D3
:100810006C02EF5FE0936C02E150F0E0ED59FD4FA8
:10082000E081E093C600A0916C02A83019F4E0E0EA
:10083000E0936C02E0916D02E03009F45A98E9917E
:10084000EFBFF991E991A9911895AA93E881E06425
:10085000E0937C0085E38A95F1F7E0917A00E0640B
:10086000E0937A00E0917A00E071E1F3E0917A00A0
:10087000E061E0937A00E0917800F0917900AAC4F9
:10088000A4E422D280E293E00197F1F7AEEB1CD210
:10089000D9D1E0933602D6D1E0933702E091360207
:1008A000EA93A0913702D5DDE0933E02F0933F0238
:1008B0007FD15E2E6F2E5FD618D5DF01CB017FDC96
:1008C0009E2EAF2E7CD17E2E8F2E55D60ED5DF01DB
:1008D000CB011ADDBE2ECF2EA3E0B7DFE0933402AA
:1008E000F09335026627772700D5DF01CB0129D2A7
:1008F000C5D4E0933402F09335020895E0E8E09324
:100900006100E0E0E0936100A3DE5A9AECE6F0E0DB
:10091000FA93EA9380E037D42296A4E0B0E07DD643
:10092000EF3429F4A5E0B0E078D6EB3409F004C048
:100930005A9AEBE7F0E003C05A9AEFE9F0E0FA9335
:10094000EA93A0E0B0E065D616D647D6A2E0B0E0C4
:1009500060D611D642D688E016D42A96A8D1EFE008
:10096000EA93E8E2EA93A0E0B6D13324E0E0F0E0D5
:1009700060E070E432D631D6AAE0B7ED83E29CE3C2
:10098000BCD17EDF7DDF7CDF7BDF7ADF79DF78DF64
:1009900077DF76DF75DFA4E0B0E03FD6EF3429F0F3
:1009A000A5E0B0E03AD6EB3409F401C05B9AA0911F
:1009B0003C02B0913D02119709F04DC0E4E6F0E031
:1009C000E0933C02F0933D025B9A339459DFEAE0F6
:1009D000E31509F03FC03324A0E0B0E01AD6DF01F0
:1009E000E92DFA2DEA1BFB0BA5E0B0E0D6D5DE2EF3
:1009F000EF2EA2E0B0E00DD6DF01EB2DFC2DEA1BBF
:100A0000FB0BA5E0B0E0C9D5E0930202F09303022E
:100A10005A9AE2ECF0E0FA93EA93ED2DFE2DABD575
:100A2000DCD5E0910202F0910302A5D5D6D5E09184
:100A30003602EA93A09137020CDD66277727CDD5E1
:100A4000E0913402F091350266277727C6D580E120
:100A50009AD362965B98A0913A02B0913B021197AB
:100A600031F4E0E0E0933A02E0933B02CBD0E1E0E6
:100A7000E415B9F4E0EDF7E0E0930002F093010231
:100A800044245B9AE0E0E0933C02E0933D02A4E062
:100A9000B0E0EFE3D6D5A5E0B0E0D3D5A4E6B0E072
:100AA000B4D3A0910002B0910102129708F455C08E
:100AB000A8EEB3E0AAD3E4DEA4E6B0E0A6D3E0DE7D
:100AC000A4E6B0E0A2D3DCDEA4E6B0E09ED3D8DE9C
:100AD000A4E6B0E09AD3D4DEA4E6B0E096D3D0DEAC
:100AE000A4E6B0E092D3CCDEA4E6B0E08ED3C8DEBC
:100AF000A4E6B0E08AD3C4DEA4E6B0E086D3C0DECC
:100B0000A4E6B0E082D3E92DFA2DA0E0B0E091D5C3
:100B1000EB2DFC2DA2E0B0E08CD5E1E0F0E0E0931D
:100B20000002F09301025A9AEDEDF0E0FA93EA9395
:100B3000A0E0B0E06ED51FD550D5A2E0B0E069D5F9
:100B40001AD54BD588E01FD32A96A4E0B0E0EFE495
:100B500078D5A5E0B0E0EBE474D5A0910002B091A7
:100B60000102119719F5E0E0E0930002E093010221
:100B70005B98E4E6F0E0E0933C02F0933D02A4E0F1
:100B8000B0E04BD5EF3491F05A9AE7EFF0E0FA93EA
:100B9000EA93A0E0B0E03DD5EED41FD5A2E0B0E0EE
:100BA00038D5E9D41AD588E0EED22A96F4CEFFCF14
:100BB0005DD500E010E0A0E109D08F0158C056D506
:100BC00000E010E0A1E102D08F0151C0AA934CD502
:100BD00010E020E030E02A98AC81F5D2A0E0F3D21A
:100BE0002E2F3327A0E0EFD21E2F2A9A322F222752
:100BF000F0E02E2B3F2BD901E5E0A4D49F013BD59B
:100C0000259608951A93A0915802A33441F4A09117
:100C10005902A13421F4A0915B02A93409F002C069
:100C2000E1E04E2E10E0183040F4E12FF0E0E85AF9
:100C3000FD4FA0E0A0831F5FF6CFE0E0E0936002ED
:100C40001991089513D510E000E018E0113070F00C
:100C50003A9A42980695429A3A98429A329900688E
:100C600080EE91E00197F1F71150F0CFE02F09915C
:100C700019910895AA931A9310E03A9A18E0113046
:100C800098F04298E981E17009F0429AE981E170B7
:100C900009F4429880EF90E00197F1F7429AE981D8
:100CA000E695E9831150EBCF1881229608953A9A80
:100CB000429880ED97E00197F1F73A98429A80EDDB
:100CC00097E00197F1F70895AA93F1DFACECD2DF3A
:100CD000A881D0DF7FC2AA93E881E295E07FEE0F82
:100CE000EF61E883AEE4F0DFA981C4DFAA81C2DF4F
:100CF000A881C0DFA8E4E8DFDBC074D4E885F9850B
:100D00006A857B85E0936E02F0936F0260937002B8
:100D100070937102EC81FD816E817F81E09372029C
:100D2000F0937302609374027093750251D4E09350
:100D30007602F093770260937802709379022C9692
:100D4000089550D4E0916E02F0916F0260917002AC
:100D500070917102A0917202B0917302809174023D
:100D600090917502FCD2A0917202B09173028091B1
:100D700074029091750291D3E0938202F093830202
:100D80006093840270938502A0917E02B0917F02ED
:100D900080918002909181021BD4DAD2A0918202CC
:100DA000B0918302809184029091850228D3A09112
:100DB0007E02B0917F028091800290918102CFD219
:100DC000E0937A02F0937B0260937C0270937D0241
:100DD000A0918202B0918302809184029091850259
:100DE000E0E0F0E060E87FE3B3D2A0917202B0915E
:100DF0007302809174029091750201D37F936F9377
:100E0000FF93EF93A0917A02B0917B0280917C02D4
:100E100090917D02E0917E02F0917F0260918002CC
:100E20007091810295D2DF01CB0130D0A091760282
:100E3000B09177028091780290917902E0D2AF91DF
:100E4000BF918F919F918BD2E0937202F0937302C6
:100E50006093740270937502E0917A02F0917B02C4
:100E600060917C0270917D02E0937E02F0937F029C
:100E70006093800270938102E0917A02F0917B028C
:100E800060917C0270917D0224960895ABD3E99124
:100E9000F991699179917F770895BA93AA93AA817C
:100EA000ACDBA881B981ED91FD913196FE93EE9373
:100EB00023960895BA93AA932697D4D310E0AC85CD
:100EC000BD85E0E0F0E0ED93FC93EA89FB89319683
:100ED000EA8BFB8B3197E4912E2FE03009F44DC162
:100EE000E12FE03059F4253211F411E006C02A93C5
:100EF000AD85BE85EF85F88909953EC1E130C9F41D
:100F0000253239F42A93AD85BE85EF85F889099598
:100F100032C112E040E000E02D3211F401E02CC1BA
:100F20002B3211F44BE228C1203211F440E224C1EB
:100F300002C0E23039F450E013E0203311F40068CD
:100F40001BC103C0E33009F017C1203310F02A336E
:100F500008F007C0AAE05A9F502DE22FE0535E0F21
:100F60000BC1E22FE33669F4E889F9893497E88BFD
:100F7000F98BA481AA93AD85BE85EF85F889099583
:100F8000FAC0E33781F4E889F9893497E88BF98B63
:100F9000A889B989149614D3EE83FF83AE81BF81EB
:100FA0001BD11E2F12C0E037A1F4E889F9893497CC
:100FB000E88BF98BA889B989149602D3EE83FF8355
:100FC000AE81BF8115D11E2F086002600F7730E01F
:100FD0003FC0E43611F0E93611F4046002C0E53791
:100FE00031F4E4E3F0E0EE83FF8315E00CC0E83574
:100FF00011F4086003C0E83709F0BDC0EEE3F0E08B
:10100000EE83FF8314E002FF18C0E889F989349762
:10101000E88BF98BA889B9891496D2D2EA87FB8725
:10102000AB85AA2322F482D2EA87FB874DE24030C7
:1010300011F01F5F01C00B7F0BC0E889F98934975D
:10104000E88BF98BA889B9891496BAD2EA87FB870D
:1010500000FD15C0151798F407FF08C002FF04C073
:101060000B7F242F115001C020E301C020E22A93FE
:10107000AD85BE85EF85F88909955150EBCF312FAD
:1010800001FF1BC03030C1F003FF06C0EE81FF81BD
:101090002591EE83FF8305C0AE81BF812D91AE8384
:1010A000BF832A93AD85BE85EF85F88909955030B9
:1010B00009F051503150E6CF51C020E3EE81FF815D
:1010C00083D2E887F987EE81FF813296EE83FF8332
:1010D000E885F985AA85BB85AE17BF0750F02F5F5D
:1010E000A885B985EA85FB85EA1BFB0BEA87FB87A8
:1010F000EFCF2A3328F003FF02C0295F01C0295D2A
:1011000004FD1DC0213320F4A885B985119709F489
:1011100009C0531710F000FF01C01AC020E207FFFA
:101120000EC020E3006102FF0AC00B7F4A93AD8529
:10113000BE85EF85F8890995503009F051502A9302
:10114000AD85BE85EF85F8890995503009F051507D
:101150003150A885B985129708F0AFCF00FF0BC0BA
:10116000503049F05150E0E2EA93AD85BE85EF85FD
:10117000F8890995F5CF10E0A8CEAC85BD8520D2C1
:1011800078D264960895FF92F82E26976FD2DE01EA
:101190001496C8D18D01E0E0EC83ED83EE83EF83FC
:1011A000DE011896BFD10CD2FA93EA931A930A93F0
:1011B000EDE4F7E0FA93EA93DE0118967BDE5DD268
:1011C0002896FF900895AA93E881EEBDEDB5E7FF5C
:1011D000FDCFEEB521960895BA93AA93A991B9913E
:1011E000EE27FF276D91662311F03196FBCF08950E
:1011F000BA93AA93AA27BB27E991F99105900020F9
:1012000011F01196FBCFFD010895109639F080EA98
:101210009FE00197F1F7A8951197C9F70895552315
:1012200042F4503811F4E0FF04C03196691F791F71
:101230006BF050E8572711F45F93CFC05F3F31F058
:10124000660F000C57956795752F08955F930020E2
:101250000AF0CFC0C8C050E8192E1522880F991F78
:101260009527550F879550E8072E0522660F771FA3
:101270007527550F67950895689401C0E8945F93AA
:10128000F2DF703818F07F3F08F4A7C056E1571B13
:10129000AAF4519558300EF4593030F0EFEFFFEFCB
:1012A0006FEF7FE777F91AC077275523B9F0EE0F74
:1012B000FF1F661F771F5A95D1F710C07727583048
:1012C00028F0EF2FF62F672F5850F9CF552331F024
:1012D00076956795F795E7955A95D1F700200AF42A
:1012E00029D15F910895689401C0E89430976040D7
:1012F0007040B1F0002426F0772312F400941AD144
:10130000172E7EE1112032F07A95EE0FFF1F661F37
:10131000111CF9CFEF2FF62F612D5F938ADF5F91BC
:1013200008954F93AF01FD01DA01AB01BC01CA0181
:10133000402D012C142E4F910895EA0FFB1F681FBA
:101340000895E095F0956095EF5FFF4F6F4F08951A
:101350005F9381DF903871F150E8152604C05F93E8
:101360007ADF903839F1703821F1572F591B2BF162
:1013700012F4D7DFFACF583118F0AA27BB278827F5
:10138000583028F0AB2FB82F88275850F9CF552365
:1013900029F08695B795A7955A95D9F7502D5125DF
:1013A00072F0CBDF38F46795F795E795739513F4F2
:1013B00020C0B7DF3EDF5F910895D8F7FBCFEA1B6F
:1013C000FB0B680B51F010F40094BBDF662392F323
:1013D000EE0FFF1F661F7A95CBF7EE27FF276627D4
:1013E00077275F910895EFEFFFEF6FE77FEF5F9152
:1013F0000895EFEFFFEF6FE77FE75F9108955F9349
:101400002ADF703851F3903841F301240894791F92
:1014100023F41CF300203AF3ECCF0F921F932F9389
:101420003F934F93112722279927689FA0018F9FF1
:10143000302D410D591F6B9F300D411D591F8E9F3F
:1014400027D0BF9F25D06A9F23D0BE9F1DD0AF9FBE
:101450001BD0AE9F110D291F391F491F591FE32FA4
:10146000F42F652F522F4F913F912F911F910F9085
:1014700066232AF0550FEE1FFF1F661F02C07395EB
:101480004BF2CDDE5F910895100D211D391F02C072
:10149000200D311D491F591F08955F93DCDE703800
:1014A00021F411200AF49FCFA4CF903809F495CFEE
:1014B00001240894970B1BF4D4F30020F3CF792F69
:1014C0001F932F933F934F931124112722273327E4
:1014D0004427552790E2AE17BF078607410730F033
:1014E000AE1BBF0B860B410B089401C08894551F9F
:1014F000221F331F111CAA1FBB1F881F441F9A9550
:1015000051F7F901612D4F913F912F911F91662362
:1015100032F0550FEE1FFF1F661F7A9543F27FDEF4
:101520005F9108950024AF0DB01D0895F195E195E8
:10153000F0400895F09560957095E195FF4F6F4FDD
:101540007F4F0895EE230E2EFD0121F0F695E795CD
:101550000A94E1F70895F595E795F595E795F595E2
:10156000E795F595E7950895F695E795F695E7954E
:10157000F695E79508956F2F660F660B762F089501
:101580008B2F880F880B982F0895FA9FF02DEB9FD3
:10159000F00DEA9FE02DF10D089504D0F6DF0EF472
:1015A000C5DF0895E894F7FF02C0C0DF6894B7FF75
:1015B00006C0A095B095119600F8039400FA08951E
:1015C000ED91FC91119708950590F491E02D089507
:1015D000E881F9816A817B8108957A936A93FA930D
:1015E000EA9308959A938A93BA93AA930895689474
:1015F00001C0E89401D07ADE182E862F612D192EB5
:10160000972F712D1B2EBF2FF12D1A2EAE2FE12DEE
:101610000895119602D0FE2F1197F999FECFFF93EE
:10162000FFB7F894A1BDB2BDF89AE0B5FFBFFF9136
:10163000089507D01196EF93EF2F03D0EF911197F4
:101640000895F99B02C0A895FCCF9FB7F894A1BD5F
:10165000B2BDF89A80B5E81719F0E0BDFA9AF99A88
:101660009FBF08955A934A933A932A931A930A93E1
:1016700008955D814C813B812A81198108810895FB
:00000001FF
